{
  "contractName": "ERC1155PresetMinterPauser",
  "abi": [
    {
      "inputs": [
        {
          "internalType": "string",
          "name": "uri",
          "type": "string"
        }
      ],
      "stateMutability": "nonpayable",
      "type": "constructor"
    },
    {
      "anonymous": false,
      "inputs": [
        {
          "indexed": true,
          "internalType": "address",
          "name": "account",
          "type": "address"
        },
        {
          "indexed": true,
          "internalType": "address",
          "name": "operator",
          "type": "address"
        },
        {
          "indexed": false,
          "internalType": "bool",
          "name": "approved",
          "type": "bool"
        }
      ],
      "name": "ApprovalForAll",
      "type": "event"
    },
    {
      "anonymous": false,
      "inputs": [
        {
          "indexed": false,
          "internalType": "address",
          "name": "account",
          "type": "address"
        }
      ],
      "name": "Paused",
      "type": "event"
    },
    {
      "anonymous": false,
      "inputs": [
        {
          "indexed": true,
          "internalType": "bytes32",
          "name": "role",
          "type": "bytes32"
        },
        {
          "indexed": true,
          "internalType": "bytes32",
          "name": "previousAdminRole",
          "type": "bytes32"
        },
        {
          "indexed": true,
          "internalType": "bytes32",
          "name": "newAdminRole",
          "type": "bytes32"
        }
      ],
      "name": "RoleAdminChanged",
      "type": "event"
    },
    {
      "anonymous": false,
      "inputs": [
        {
          "indexed": true,
          "internalType": "bytes32",
          "name": "role",
          "type": "bytes32"
        },
        {
          "indexed": true,
          "internalType": "address",
          "name": "account",
          "type": "address"
        },
        {
          "indexed": true,
          "internalType": "address",
          "name": "sender",
          "type": "address"
        }
      ],
      "name": "RoleGranted",
      "type": "event"
    },
    {
      "anonymous": false,
      "inputs": [
        {
          "indexed": true,
          "internalType": "bytes32",
          "name": "role",
          "type": "bytes32"
        },
        {
          "indexed": true,
          "internalType": "address",
          "name": "account",
          "type": "address"
        },
        {
          "indexed": true,
          "internalType": "address",
          "name": "sender",
          "type": "address"
        }
      ],
      "name": "RoleRevoked",
      "type": "event"
    },
    {
      "anonymous": false,
      "inputs": [
        {
          "indexed": true,
          "internalType": "address",
          "name": "operator",
          "type": "address"
        },
        {
          "indexed": true,
          "internalType": "address",
          "name": "from",
          "type": "address"
        },
        {
          "indexed": true,
          "internalType": "address",
          "name": "to",
          "type": "address"
        },
        {
          "indexed": false,
          "internalType": "uint256[]",
          "name": "ids",
          "type": "uint256[]"
        },
        {
          "indexed": false,
          "internalType": "uint256[]",
          "name": "values",
          "type": "uint256[]"
        }
      ],
      "name": "TransferBatch",
      "type": "event"
    },
    {
      "anonymous": false,
      "inputs": [
        {
          "indexed": true,
          "internalType": "address",
          "name": "operator",
          "type": "address"
        },
        {
          "indexed": true,
          "internalType": "address",
          "name": "from",
          "type": "address"
        },
        {
          "indexed": true,
          "internalType": "address",
          "name": "to",
          "type": "address"
        },
        {
          "indexed": false,
          "internalType": "uint256",
          "name": "id",
          "type": "uint256"
        },
        {
          "indexed": false,
          "internalType": "uint256",
          "name": "value",
          "type": "uint256"
        }
      ],
      "name": "TransferSingle",
      "type": "event"
    },
    {
      "anonymous": false,
      "inputs": [
        {
          "indexed": false,
          "internalType": "string",
          "name": "value",
          "type": "string"
        },
        {
          "indexed": true,
          "internalType": "uint256",
          "name": "id",
          "type": "uint256"
        }
      ],
      "name": "URI",
      "type": "event"
    },
    {
      "anonymous": false,
      "inputs": [
        {
          "indexed": false,
          "internalType": "address",
          "name": "account",
          "type": "address"
        }
      ],
      "name": "Unpaused",
      "type": "event"
    },
    {
      "inputs": [],
      "name": "DEFAULT_ADMIN_ROLE",
      "outputs": [
        {
          "internalType": "bytes32",
          "name": "",
          "type": "bytes32"
        }
      ],
      "stateMutability": "view",
      "type": "function"
    },
    {
      "inputs": [],
      "name": "MINTER_ROLE",
      "outputs": [
        {
          "internalType": "bytes32",
          "name": "",
          "type": "bytes32"
        }
      ],
      "stateMutability": "view",
      "type": "function"
    },
    {
      "inputs": [],
      "name": "PAUSER_ROLE",
      "outputs": [
        {
          "internalType": "bytes32",
          "name": "",
          "type": "bytes32"
        }
      ],
      "stateMutability": "view",
      "type": "function"
    },
    {
      "inputs": [
        {
          "internalType": "address",
          "name": "account",
          "type": "address"
        },
        {
          "internalType": "uint256",
          "name": "id",
          "type": "uint256"
        }
      ],
      "name": "balanceOf",
      "outputs": [
        {
          "internalType": "uint256",
          "name": "",
          "type": "uint256"
        }
      ],
      "stateMutability": "view",
      "type": "function"
    },
    {
      "inputs": [
        {
          "internalType": "address[]",
          "name": "accounts",
          "type": "address[]"
        },
        {
          "internalType": "uint256[]",
          "name": "ids",
          "type": "uint256[]"
        }
      ],
      "name": "balanceOfBatch",
      "outputs": [
        {
          "internalType": "uint256[]",
          "name": "",
          "type": "uint256[]"
        }
      ],
      "stateMutability": "view",
      "type": "function"
    },
    {
      "inputs": [
        {
          "internalType": "address",
          "name": "account",
          "type": "address"
        },
        {
          "internalType": "uint256",
          "name": "id",
          "type": "uint256"
        },
        {
          "internalType": "uint256",
          "name": "value",
          "type": "uint256"
        }
      ],
      "name": "burn",
      "outputs": [],
      "stateMutability": "nonpayable",
      "type": "function"
    },
    {
      "inputs": [
        {
          "internalType": "address",
          "name": "account",
          "type": "address"
        },
        {
          "internalType": "uint256[]",
          "name": "ids",
          "type": "uint256[]"
        },
        {
          "internalType": "uint256[]",
          "name": "values",
          "type": "uint256[]"
        }
      ],
      "name": "burnBatch",
      "outputs": [],
      "stateMutability": "nonpayable",
      "type": "function"
    },
    {
      "inputs": [
        {
          "internalType": "bytes32",
          "name": "role",
          "type": "bytes32"
        }
      ],
      "name": "getRoleAdmin",
      "outputs": [
        {
          "internalType": "bytes32",
          "name": "",
          "type": "bytes32"
        }
      ],
      "stateMutability": "view",
      "type": "function"
    },
    {
      "inputs": [
        {
          "internalType": "bytes32",
          "name": "role",
          "type": "bytes32"
        },
        {
          "internalType": "uint256",
          "name": "index",
          "type": "uint256"
        }
      ],
      "name": "getRoleMember",
      "outputs": [
        {
          "internalType": "address",
          "name": "",
          "type": "address"
        }
      ],
      "stateMutability": "view",
      "type": "function"
    },
    {
      "inputs": [
        {
          "internalType": "bytes32",
          "name": "role",
          "type": "bytes32"
        }
      ],
      "name": "getRoleMemberCount",
      "outputs": [
        {
          "internalType": "uint256",
          "name": "",
          "type": "uint256"
        }
      ],
      "stateMutability": "view",
      "type": "function"
    },
    {
      "inputs": [
        {
          "internalType": "bytes32",
          "name": "role",
          "type": "bytes32"
        },
        {
          "internalType": "address",
          "name": "account",
          "type": "address"
        }
      ],
      "name": "grantRole",
      "outputs": [],
      "stateMutability": "nonpayable",
      "type": "function"
    },
    {
      "inputs": [
        {
          "internalType": "bytes32",
          "name": "role",
          "type": "bytes32"
        },
        {
          "internalType": "address",
          "name": "account",
          "type": "address"
        }
      ],
      "name": "hasRole",
      "outputs": [
        {
          "internalType": "bool",
          "name": "",
          "type": "bool"
        }
      ],
      "stateMutability": "view",
      "type": "function"
    },
    {
      "inputs": [
        {
          "internalType": "address",
          "name": "account",
          "type": "address"
        },
        {
          "internalType": "address",
          "name": "operator",
          "type": "address"
        }
      ],
      "name": "isApprovedForAll",
      "outputs": [
        {
          "internalType": "bool",
          "name": "",
          "type": "bool"
        }
      ],
      "stateMutability": "view",
      "type": "function"
    },
    {
      "inputs": [],
      "name": "paused",
      "outputs": [
        {
          "internalType": "bool",
          "name": "",
          "type": "bool"
        }
      ],
      "stateMutability": "view",
      "type": "function"
    },
    {
      "inputs": [
        {
          "internalType": "bytes32",
          "name": "role",
          "type": "bytes32"
        },
        {
          "internalType": "address",
          "name": "account",
          "type": "address"
        }
      ],
      "name": "renounceRole",
      "outputs": [],
      "stateMutability": "nonpayable",
      "type": "function"
    },
    {
      "inputs": [
        {
          "internalType": "bytes32",
          "name": "role",
          "type": "bytes32"
        },
        {
          "internalType": "address",
          "name": "account",
          "type": "address"
        }
      ],
      "name": "revokeRole",
      "outputs": [],
      "stateMutability": "nonpayable",
      "type": "function"
    },
    {
      "inputs": [
        {
          "internalType": "address",
          "name": "from",
          "type": "address"
        },
        {
          "internalType": "address",
          "name": "to",
          "type": "address"
        },
        {
          "internalType": "uint256[]",
          "name": "ids",
          "type": "uint256[]"
        },
        {
          "internalType": "uint256[]",
          "name": "amounts",
          "type": "uint256[]"
        },
        {
          "internalType": "bytes",
          "name": "data",
          "type": "bytes"
        }
      ],
      "name": "safeBatchTransferFrom",
      "outputs": [],
      "stateMutability": "nonpayable",
      "type": "function"
    },
    {
      "inputs": [
        {
          "internalType": "address",
          "name": "from",
          "type": "address"
        },
        {
          "internalType": "address",
          "name": "to",
          "type": "address"
        },
        {
          "internalType": "uint256",
          "name": "id",
          "type": "uint256"
        },
        {
          "internalType": "uint256",
          "name": "amount",
          "type": "uint256"
        },
        {
          "internalType": "bytes",
          "name": "data",
          "type": "bytes"
        }
      ],
      "name": "safeTransferFrom",
      "outputs": [],
      "stateMutability": "nonpayable",
      "type": "function"
    },
    {
      "inputs": [
        {
          "internalType": "address",
          "name": "operator",
          "type": "address"
        },
        {
          "internalType": "bool",
          "name": "approved",
          "type": "bool"
        }
      ],
      "name": "setApprovalForAll",
      "outputs": [],
      "stateMutability": "nonpayable",
      "type": "function"
    },
    {
      "inputs": [
        {
          "internalType": "bytes4",
          "name": "interfaceId",
          "type": "bytes4"
        }
      ],
      "name": "supportsInterface",
      "outputs": [
        {
          "internalType": "bool",
          "name": "",
          "type": "bool"
        }
      ],
      "stateMutability": "view",
      "type": "function"
    },
    {
      "inputs": [
        {
          "internalType": "uint256",
          "name": "",
          "type": "uint256"
        }
      ],
      "name": "uri",
      "outputs": [
        {
          "internalType": "string",
          "name": "",
          "type": "string"
        }
      ],
      "stateMutability": "view",
      "type": "function"
    },
    {
      "inputs": [
        {
          "internalType": "address",
          "name": "to",
          "type": "address"
        },
        {
          "internalType": "uint256",
          "name": "id",
          "type": "uint256"
        },
        {
          "internalType": "uint256",
          "name": "amount",
          "type": "uint256"
        },
        {
          "internalType": "bytes",
          "name": "data",
          "type": "bytes"
        }
      ],
      "name": "mint",
      "outputs": [],
      "stateMutability": "nonpayable",
      "type": "function"
    },
    {
      "inputs": [
        {
          "internalType": "address",
          "name": "to",
          "type": "address"
        },
        {
          "internalType": "uint256[]",
          "name": "ids",
          "type": "uint256[]"
        },
        {
          "internalType": "uint256[]",
          "name": "amounts",
          "type": "uint256[]"
        },
        {
          "internalType": "bytes",
          "name": "data",
          "type": "bytes"
        }
      ],
      "name": "mintBatch",
      "outputs": [],
      "stateMutability": "nonpayable",
      "type": "function"
    },
    {
      "inputs": [],
      "name": "pause",
      "outputs": [],
      "stateMutability": "nonpayable",
      "type": "function"
    },
    {
      "inputs": [],
      "name": "unpause",
      "outputs": [],
      "stateMutability": "nonpayable",
      "type": "function"
    }
  ],
  "bytecode": "0x60806040523480156200001157600080fd5b506040516200486538038062004865833981810160405260208110156200003757600080fd5b81019080805160405193929190846401000000008211156200005857600080fd5b838201915060208201858111156200006f57600080fd5b82518660018202830111640100000000821117156200008d57600080fd5b8083526020830192505050908051906020019080838360005b83811015620000c3578082015181840152602081019050620000a6565b50505050905090810190601f168015620000f15780820380516001836020036101000a031916815260200191505b5060405250505080620001116301ffc9a760e01b6200024560201b60201c565b62000122816200034e60201b60201c565b6200013a63d9b67a2660e01b6200024560201b60201c565b62000152630e89341c60e01b6200024560201b60201c565b506000600560006101000a81548160ff021916908315150217905550620001926000801b620001866200036a60201b60201c565b6200037260201b60201c565b620001e860405180807f4d494e5445525f524f4c45000000000000000000000000000000000000000000815250600b0190506040518091039020620001dc6200036a60201b60201c565b6200037260201b60201c565b6200023e60405180807f5041555345525f524f4c45000000000000000000000000000000000000000000815250600b0190506040518091039020620002326200036a60201b60201c565b6200037260201b60201c565b50620005af565b63ffffffff60e01b817bffffffffffffffffffffffffffffffffffffffffffffffffffffffff19161415620002e2576040517f08c379a000000000000000000000000000000000000000000000000000000000815260040180806020018281038252601c8152602001807f4552433136353a20696e76616c696420696e746572666163652069640000000081525060200191505060405180910390fd5b6001806000837bffffffffffffffffffffffffffffffffffffffffffffffffffffffff19167bffffffffffffffffffffffffffffffffffffffffffffffffffffffff1916815260200190815260200160002060006101000a81548160ff02191690831515021790555050565b80600490805190602001906200036692919062000500565b5050565b600033905090565b6200038482826200038860201b60201c565b5050565b620003b6816000808581526020019081526020016000206000016200042b60201b620024351790919060201c565b156200042757620003cc6200036a60201b60201c565b73ffffffffffffffffffffffffffffffffffffffff168173ffffffffffffffffffffffffffffffffffffffff16837f2f8788117e7eff1d82e926ec794901d17c78024a50270940304540a733656f0d60405160405180910390a45b5050565b60006200045b836000018373ffffffffffffffffffffffffffffffffffffffff1660001b6200046360201b60201c565b905092915050565b6000620004778383620004dd60201b60201c565b620004d2578260000182908060018154018082558091505060019003906000526020600020016000909190919091505582600001805490508360010160008481526020019081526020016000208190555060019050620004d7565b600090505b92915050565b600080836001016000848152602001908152602001600020541415905092915050565b828054600181600116156101000203166002900490600052602060002090601f016020900481019282601f106200054357805160ff191683800117855562000574565b8280016001018555821562000574579182015b828111156200057357825182559160200191906001019062000556565b5b50905062000583919062000587565b5090565b620005ac91905b80821115620005a85760008160009055506001016200058e565b5090565b90565b6142a680620005bf6000396000f3fe608060405234801561001057600080fd5b50600436106101725760003560e01c8063731133e9116100de578063ca15c87311610097578063e63ab1e911610071578063e63ab1e914610e15578063e985e9c514610e33578063f242432a14610eaf578063f5298aca14610fbe57610172565b8063ca15c87314610d67578063d539139314610da9578063d547741f14610dc757610172565b8063731133e914610b225780638456cb5914610c115780639010d07c14610c1b57806391d1485414610c93578063a217fddf14610cf9578063a22cb46514610d1757610172565b80632f2ff15d116101305780632f2ff15d1461074d57806336568abe1461079b5780633f4ba83a146107e95780634e1273f4146107f35780635c975abb146109945780636b20c454146109b657610172565b8062fdd58e1461017757806301ffc9a7146101d95780630e89341c1461023e5780631f7fdffa146102e5578063248a9ca3146104e85780632eb2c2d61461052a575b600080fd5b6101c36004803603604081101561018d57600080fd5b81019080803573ffffffffffffffffffffffffffffffffffffffff16906020019092919080359060200190929190505050611016565b6040518082815260200191505060405180910390f35b610224600480360360208110156101ef57600080fd5b8101908080357bffffffffffffffffffffffffffffffffffffffffffffffffffffffff191690602001909291905050506110f6565b604051808215151515815260200191505060405180910390f35b61026a6004803603602081101561025457600080fd5b810190808035906020019092919050505061115e565b6040518080602001828103825283818151815260200191508051906020019080838360005b838110156102aa57808201518184015260208101905061028f565b50505050905090810190601f1680156102d75780820380516001836020036101000a031916815260200191505b509250505060405180910390f35b6104e6600480360360808110156102fb57600080fd5b81019080803573ffffffffffffffffffffffffffffffffffffffff1690602001909291908035906020019064010000000081111561033857600080fd5b82018360208201111561034a57600080fd5b8035906020019184602083028401116401000000008311171561036c57600080fd5b919080806020026020016040519081016040528093929190818152602001838360200280828437600081840152601f19601f820116905080830192505050505050509192919290803590602001906401000000008111156103cc57600080fd5b8201836020820111156103de57600080fd5b8035906020019184602083028401116401000000008311171561040057600080fd5b919080806020026020016040519081016040528093929190818152602001838360200280828437600081840152601f19601f8201169050808301925050505050505091929192908035906020019064010000000081111561046057600080fd5b82018360208201111561047257600080fd5b8035906020019184600183028401116401000000008311171561049457600080fd5b91908080601f016020809104026020016040519081016040528093929190818152602001838380828437600081840152601f19601f820116905080830192505050505050509192919290505050611202565b005b610514600480360360208110156104fe57600080fd5b81019080803590602001909291905050506112af565b6040518082815260200191505060405180910390f35b61074b600480360360a081101561054057600080fd5b81019080803573ffffffffffffffffffffffffffffffffffffffff169060200190929190803573ffffffffffffffffffffffffffffffffffffffff1690602001909291908035906020019064010000000081111561059d57600080fd5b8201836020820111156105af57600080fd5b803590602001918460208302840111640100000000831117156105d157600080fd5b919080806020026020016040519081016040528093929190818152602001838360200280828437600081840152601f19601f8201169050808301925050505050505091929192908035906020019064010000000081111561063157600080fd5b82018360208201111561064357600080fd5b8035906020019184602083028401116401000000008311171561066557600080fd5b919080806020026020016040519081016040528093929190818152602001838360200280828437600081840152601f19601f820116905080830192505050505050509192919290803590602001906401000000008111156106c557600080fd5b8201836020820111156106d757600080fd5b803590602001918460018302840111640100000000831117156106f957600080fd5b91908080601f016020809104026020016040519081016040528093929190818152602001838380828437600081840152601f19601f8201169050808301925050505050505091929192905050506112ce565b005b6107996004803603604081101561076357600080fd5b8101908080359060200190929190803573ffffffffffffffffffffffffffffffffffffffff16906020019092919050505061175c565b005b6107e7600480360360408110156107b157600080fd5b8101908080359060200190929190803573ffffffffffffffffffffffffffffffffffffffff1690602001909291905050506117e5565b005b6107f161187e565b005b61093d6004803603604081101561080957600080fd5b810190808035906020019064010000000081111561082657600080fd5b82018360208201111561083857600080fd5b8035906020019184602083028401116401000000008311171561085a57600080fd5b919080806020026020016040519081016040528093929190818152602001838360200280828437600081840152601f19601f820116905080830192505050505050509192919290803590602001906401000000008111156108ba57600080fd5b8201836020820111156108cc57600080fd5b803590602001918460208302840111640100000000831117156108ee57600080fd5b919080806020026020016040519081016040528093929190818152602001838360200280828437600081840152601f19601f820116905080830192505050505050509192919290505050611923565b6040518080602001828103825283818151815260200191508051906020019060200280838360005b83811015610980578082015181840152602081019050610965565b505050509050019250505060405180910390f35b61099c611a38565b604051808215151515815260200191505060405180910390f35b610b20600480360360608110156109cc57600080fd5b81019080803573ffffffffffffffffffffffffffffffffffffffff16906020019092919080359060200190640100000000811115610a0957600080fd5b820183602082011115610a1b57600080fd5b80359060200191846020830284011164010000000083111715610a3d57600080fd5b919080806020026020016040519081016040528093929190818152602001838360200280828437600081840152601f19601f82011690508083019250505050505050919291929080359060200190640100000000811115610a9d57600080fd5b820183602082011115610aaf57600080fd5b80359060200191846020830284011164010000000083111715610ad157600080fd5b919080806020026020016040519081016040528093929190818152602001838360200280828437600081840152601f19601f820116905080830192505050505050509192919290505050611a4f565b005b610c0f60048036036080811015610b3857600080fd5b81019080803573ffffffffffffffffffffffffffffffffffffffff169060200190929190803590602001909291908035906020019092919080359060200190640100000000811115610b8957600080fd5b820183602082011115610b9b57600080fd5b80359060200191846001830284011164010000000083111715610bbd57600080fd5b91908080601f016020809104026020016040519081016040528093929190818152602001838380828437600081840152601f19601f820116905080830192505050505050509192919290505050611b02565b005b610c19611baf565b005b610c5160048036036040811015610c3157600080fd5b810190808035906020019092919080359060200190929190505050611c54565b604051808273ffffffffffffffffffffffffffffffffffffffff1673ffffffffffffffffffffffffffffffffffffffff16815260200191505060405180910390f35b610cdf60048036036040811015610ca957600080fd5b8101908080359060200190929190803573ffffffffffffffffffffffffffffffffffffffff169060200190929190505050611c85565b604051808215151515815260200191505060405180910390f35b610d01611cb6565b6040518082815260200191505060405180910390f35b610d6560048036036040811015610d2d57600080fd5b81019080803573ffffffffffffffffffffffffffffffffffffffff169060200190929190803515159060200190929190505050611cbd565b005b610d9360048036036020811015610d7d57600080fd5b8101908080359060200190929190505050611e58565b6040518082815260200191505060405180910390f35b610db1611e7e565b6040518082815260200191505060405180910390f35b610e1360048036036040811015610ddd57600080fd5b8101908080359060200190929190803573ffffffffffffffffffffffffffffffffffffffff169060200190929190505050611eb7565b005b610e1d611f40565b6040518082815260200191505060405180910390f35b610e9560048036036040811015610e4957600080fd5b81019080803573ffffffffffffffffffffffffffffffffffffffff169060200190929190803573ffffffffffffffffffffffffffffffffffffffff169060200190929190505050611f79565b604051808215151515815260200191505060405180910390f35b610fbc600480360360a0811015610ec557600080fd5b81019080803573ffffffffffffffffffffffffffffffffffffffff169060200190929190803573ffffffffffffffffffffffffffffffffffffffff169060200190929190803590602001909291908035906020019092919080359060200190640100000000811115610f3657600080fd5b820183602082011115610f4857600080fd5b80359060200191846001830284011164010000000083111715610f6a57600080fd5b91908080601f016020809104026020016040519081016040528093929190818152602001838380828437600081840152601f19601f82011690508083019250505050505050919291929050505061200d565b005b61101460048036036060811015610fd457600080fd5b81019080803573ffffffffffffffffffffffffffffffffffffffff1690602001909291908035906020019092919080359060200190929190505050612382565b005b60008073ffffffffffffffffffffffffffffffffffffffff168373ffffffffffffffffffffffffffffffffffffffff16141561109d576040517f08c379a000000000000000000000000000000000000000000000000000000000815260040180806020018281038252602b815260200180613f83602b913960400191505060405180910390fd5b6002600083815260200190815260200160002060008473ffffffffffffffffffffffffffffffffffffffff1673ffffffffffffffffffffffffffffffffffffffff16815260200190815260200160002054905092915050565b600060016000837bffffffffffffffffffffffffffffffffffffffffffffffffffffffff19167bffffffffffffffffffffffffffffffffffffffffffffffffffffffff1916815260200190815260200160002060009054906101000a900460ff169050919050565b606060048054600181600116156101000203166002900480601f0160208091040260200160405190810160405280929190818152602001828054600181600116156101000203166002900480156111f65780601f106111cb576101008083540402835291602001916111f6565b820191906000526020600020905b8154815290600101906020018083116111d957829003601f168201915b50505050509050919050565b61124860405180807f4d494e5445525f524f4c45000000000000000000000000000000000000000000815250600b0190506040518091039020611243612465565b611c85565b61129d576040517f08c379a00000000000000000000000000000000000000000000000000000000081526004018080602001828103825260388152602001806140d16038913960400191505060405180910390fd5b6112a98484848461246d565b50505050565b6000806000838152602001908152602001600020600201549050919050565b8151835114611328576040517f08c379a00000000000000000000000000000000000000000000000000000000081526004018080602001828103825260288152602001806141f96028913960400191505060405180910390fd5b600073ffffffffffffffffffffffffffffffffffffffff168473ffffffffffffffffffffffffffffffffffffffff1614156113ae576040517f08c379a00000000000000000000000000000000000000000000000000000000081526004018080602001828103825260258152602001806140576025913960400191505060405180910390fd5b6113b6612465565b73ffffffffffffffffffffffffffffffffffffffff168573ffffffffffffffffffffffffffffffffffffffff1614806113fc57506113fb856113f6612465565b611f79565b5b611451576040517f08c379a000000000000000000000000000000000000000000000000000000000815260040180806020018281038252603281526020018061407c6032913960400191505060405180910390fd5b600061145b612465565b905061146b818787878787612792565b60008090505b845181101561163f57600085828151811061148857fe5b6020026020010151905060008583815181106114a057fe5b60200260200101519050611527816040518060600160405280602a8152602001614109602a91396002600086815260200190815260200160002060008d73ffffffffffffffffffffffffffffffffffffffff1673ffffffffffffffffffffffffffffffffffffffff168152602001908152602001600020546127a89092919063ffffffff16565b6002600084815260200190815260200160002060008b73ffffffffffffffffffffffffffffffffffffffff1673ffffffffffffffffffffffffffffffffffffffff168152602001908152602001600020819055506115de816002600085815260200190815260200160002060008b73ffffffffffffffffffffffffffffffffffffffff1673ffffffffffffffffffffffffffffffffffffffff1681526020019081526020016000205461286290919063ffffffff16565b6002600084815260200190815260200160002060008a73ffffffffffffffffffffffffffffffffffffffff1673ffffffffffffffffffffffffffffffffffffffff168152602001908152602001600020819055505050806001019050611471565b508473ffffffffffffffffffffffffffffffffffffffff168673ffffffffffffffffffffffffffffffffffffffff168273ffffffffffffffffffffffffffffffffffffffff167f4a39dc06d4c0dbc64b70af90fd698a233a518aa5d07e595d983b8c0526c8f7fb8787604051808060200180602001838103835285818151815260200191508051906020019060200280838360005b838110156116ef5780820151818401526020810190506116d4565b50505050905001838103825284818151815260200191508051906020019060200280838360005b83811015611731578082015181840152602081019050611716565b5050505090500194505050505060405180910390a46117548187878787876128ea565b505050505050565b6117826000808481526020019081526020016000206002015461177d612465565b611c85565b6117d7576040517f08c379a000000000000000000000000000000000000000000000000000000000815260040180806020018281038252602f815260200180613f54602f913960400191505060405180910390fd5b6117e18282612ca5565b5050565b6117ed612465565b73ffffffffffffffffffffffffffffffffffffffff168173ffffffffffffffffffffffffffffffffffffffff1614611870576040517f08c379a000000000000000000000000000000000000000000000000000000000815260040180806020018281038252602f815260200180614242602f913960400191505060405180910390fd5b61187a8282612d38565b5050565b6118c460405180807f5041555345525f524f4c45000000000000000000000000000000000000000000815250600b01905060405180910390206118bf612465565b611c85565b611919576040517f08c379a000000000000000000000000000000000000000000000000000000000815260040180806020018281038252603b815260200180614133603b913960400191505060405180910390fd5b611921612dcb565b565b6060815183511461197f576040517f08c379a00000000000000000000000000000000000000000000000000000000081526004018080602001828103825260298152602001806141d06029913960400191505060405180910390fd5b6060835167ffffffffffffffff8111801561199957600080fd5b506040519080825280602002602001820160405280156119c85781602001602082028036833780820191505090505b50905060008090505b8451811015611a2d57611a0a8582815181106119e957fe5b60200260200101518583815181106119fd57fe5b6020026020010151611016565b828281518110611a1657fe5b6020026020010181815250508060010190506119d1565b508091505092915050565b6000600560009054906101000a900460ff16905090565b611a57612465565b73ffffffffffffffffffffffffffffffffffffffff168373ffffffffffffffffffffffffffffffffffffffff161480611a9d5750611a9c83611a97612465565b611f79565b5b611af2576040517f08c379a0000000000000000000000000000000000000000000000000000000008152600401808060200182810382526029815260200180613ffe6029913960400191505060405180910390fd5b611afd838383612ecc565b505050565b611b4860405180807f4d494e5445525f524f4c45000000000000000000000000000000000000000000815250600b0190506040518091039020611b43612465565b611c85565b611b9d576040517f08c379a00000000000000000000000000000000000000000000000000000000081526004018080602001828103825260388152602001806140d16038913960400191505060405180910390fd5b611ba98484848461320a565b50505050565b611bf560405180807f5041555345525f524f4c45000000000000000000000000000000000000000000815250600b0190506040518091039020611bf0612465565b611c85565b611c4a576040517f08c379a000000000000000000000000000000000000000000000000000000000815260040180806020018281038252603981526020018061416e6039913960400191505060405180910390fd5b611c5261340d565b565b6000611c7d8260008086815260200190815260200160002060000161350f90919063ffffffff16565b905092915050565b6000611cae8260008086815260200190815260200160002060000161352990919063ffffffff16565b905092915050565b6000801b81565b8173ffffffffffffffffffffffffffffffffffffffff16611cdc612465565b73ffffffffffffffffffffffffffffffffffffffff161415611d49576040517f08c379a00000000000000000000000000000000000000000000000000000000081526004018080602001828103825260298152602001806141a76029913960400191505060405180910390fd5b8060036000611d56612465565b73ffffffffffffffffffffffffffffffffffffffff1673ffffffffffffffffffffffffffffffffffffffff16815260200190815260200160002060008473ffffffffffffffffffffffffffffffffffffffff1673ffffffffffffffffffffffffffffffffffffffff16815260200190815260200160002060006101000a81548160ff0219169083151502179055508173ffffffffffffffffffffffffffffffffffffffff16611e03612465565b73ffffffffffffffffffffffffffffffffffffffff167f17307eab39ab6107e8899845ad3d59bd9653f200f220920489ca2b5937696c3183604051808215151515815260200191505060405180910390a35050565b6000611e77600080848152602001908152602001600020600001613559565b9050919050565b60405180807f4d494e5445525f524f4c45000000000000000000000000000000000000000000815250600b019050604051809103902081565b611edd60008084815260200190815260200160002060020154611ed8612465565b611c85565b611f32576040517f08c379a00000000000000000000000000000000000000000000000000000000081526004018080602001828103825260308152602001806140276030913960400191505060405180910390fd5b611f3c8282612d38565b5050565b60405180807f5041555345525f524f4c45000000000000000000000000000000000000000000815250600b019050604051809103902081565b6000600360008473ffffffffffffffffffffffffffffffffffffffff1673ffffffffffffffffffffffffffffffffffffffff16815260200190815260200160002060008373ffffffffffffffffffffffffffffffffffffffff1673ffffffffffffffffffffffffffffffffffffffff16815260200190815260200160002060009054906101000a900460ff16905092915050565b600073ffffffffffffffffffffffffffffffffffffffff168473ffffffffffffffffffffffffffffffffffffffff161415612093576040517f08c379a00000000000000000000000000000000000000000000000000000000081526004018080602001828103825260258152602001806140576025913960400191505060405180910390fd5b61209b612465565b73ffffffffffffffffffffffffffffffffffffffff168573ffffffffffffffffffffffffffffffffffffffff1614806120e157506120e0856120db612465565b611f79565b5b612136576040517f08c379a0000000000000000000000000000000000000000000000000000000008152600401808060200182810382526029815260200180613ffe6029913960400191505060405180910390fd5b6000612140612465565b90506121608187876121518861356e565b61215a8861356e565b87612792565b6121dd836040518060600160405280602a8152602001614109602a91396002600088815260200190815260200160002060008a73ffffffffffffffffffffffffffffffffffffffff1673ffffffffffffffffffffffffffffffffffffffff168152602001908152602001600020546127a89092919063ffffffff16565b6002600086815260200190815260200160002060008873ffffffffffffffffffffffffffffffffffffffff1673ffffffffffffffffffffffffffffffffffffffff16815260200190815260200160002081905550612294836002600087815260200190815260200160002060008873ffffffffffffffffffffffffffffffffffffffff1673ffffffffffffffffffffffffffffffffffffffff1681526020019081526020016000205461286290919063ffffffff16565b6002600086815260200190815260200160002060008773ffffffffffffffffffffffffffffffffffffffff1673ffffffffffffffffffffffffffffffffffffffff168152602001908152602001600020819055508473ffffffffffffffffffffffffffffffffffffffff168673ffffffffffffffffffffffffffffffffffffffff168273ffffffffffffffffffffffffffffffffffffffff167fc3d58168c5ae7397731d063d5bbf3d657854427343f4c083240f7aacaa2d0f628787604051808381526020018281526020019250505060405180910390a461237a8187878787876135de565b505050505050565b61238a612465565b73ffffffffffffffffffffffffffffffffffffffff168373ffffffffffffffffffffffffffffffffffffffff1614806123d057506123cf836123ca612465565b611f79565b5b612425576040517f08c379a0000000000000000000000000000000000000000000000000000000008152600401808060200182810382526029815260200180613ffe6029913960400191505060405180910390fd5b612430838383613917565b505050565b600061245d836000018373ffffffffffffffffffffffffffffffffffffffff1660001b613b33565b905092915050565b600033905090565b600073ffffffffffffffffffffffffffffffffffffffff168473ffffffffffffffffffffffffffffffffffffffff1614156124f3576040517f08c379a00000000000000000000000000000000000000000000000000000000081526004018080602001828103825260218152602001806142216021913960400191505060405180910390fd5b815183511461254d576040517f08c379a00000000000000000000000000000000000000000000000000000000081526004018080602001828103825260288152602001806141f96028913960400191505060405180910390fd5b6000612557612465565b905061256881600087878787612792565b60008090505b8451811015612674576126006002600087848151811061258a57fe5b6020026020010151815260200190815260200160002060008873ffffffffffffffffffffffffffffffffffffffff1673ffffffffffffffffffffffffffffffffffffffff168152602001908152602001600020548583815181106125ea57fe5b602002602001015161286290919063ffffffff16565b6002600087848151811061261057fe5b6020026020010151815260200190815260200160002060008873ffffffffffffffffffffffffffffffffffffffff1673ffffffffffffffffffffffffffffffffffffffff16815260200190815260200160002081905550808060010191505061256e565b508473ffffffffffffffffffffffffffffffffffffffff16600073ffffffffffffffffffffffffffffffffffffffff168273ffffffffffffffffffffffffffffffffffffffff167f4a39dc06d4c0dbc64b70af90fd698a233a518aa5d07e595d983b8c0526c8f7fb8787604051808060200180602001838103835285818151815260200191508051906020019060200280838360005b8381101561272557808201518184015260208101905061270a565b50505050905001838103825284818151815260200191508051906020019060200280838360005b8381101561276757808201518184015260208101905061274c565b5050505090500194505050505060405180910390a461278b816000878787876128ea565b5050505050565b6127a0868686868686613ba3565b505050505050565b6000838311158290612855576040517f08c379a00000000000000000000000000000000000000000000000000000000081526004018080602001828103825283818151815260200191508051906020019080838360005b8381101561281a5780820151818401526020810190506127ff565b50505050905090810190601f1680156128475780820380516001836020036101000a031916815260200191505b509250505060405180910390fd5b5082840390509392505050565b6000808284019050838110156128e0576040517f08c379a000000000000000000000000000000000000000000000000000000000815260040180806020018281038252601b8152602001807f536166654d6174683a206164646974696f6e206f766572666c6f77000000000081525060200191505060405180910390fd5b8091505092915050565b6129098473ffffffffffffffffffffffffffffffffffffffff16613c17565b15612c9d578373ffffffffffffffffffffffffffffffffffffffff1663bc197c8187878686866040518663ffffffff1660e01b8152600401808673ffffffffffffffffffffffffffffffffffffffff1673ffffffffffffffffffffffffffffffffffffffff1681526020018573ffffffffffffffffffffffffffffffffffffffff1673ffffffffffffffffffffffffffffffffffffffff168152602001806020018060200180602001848103845287818151815260200191508051906020019060200280838360005b838110156129ed5780820151818401526020810190506129d2565b50505050905001848103835286818151815260200191508051906020019060200280838360005b83811015612a2f578082015181840152602081019050612a14565b50505050905001848103825285818151815260200191508051906020019080838360005b83811015612a6e578082015181840152602081019050612a53565b50505050905090810190601f168015612a9b5780820380516001836020036101000a031916815260200191505b5098505050505050505050602060405180830381600087803b158015612ac057600080fd5b505af1925050508015612af457506040513d6020811015612ae057600080fd5b810190808051906020019092919050505060015b612bfe57612b00613e1f565b80612b0b5750612bad565b806040517f08c379a00000000000000000000000000000000000000000000000000000000081526004018080602001828103825283818151815260200191508051906020019080838360005b83811015612b72578082015181840152602081019050612b57565b50505050905090810190601f168015612b9f5780820380516001836020036101000a031916815260200191505b509250505060405180910390fd5b6040517f08c379a0000000000000000000000000000000000000000000000000000000008152600401808060200182810382526034815260200180613ed66034913960400191505060405180910390fd5b63bc197c8160e01b7bffffffffffffffffffffffffffffffffffffffffffffffffffffffff1916817bffffffffffffffffffffffffffffffffffffffffffffffffffffffff191614612c9b576040517f08c379a0000000000000000000000000000000000000000000000000000000008152600401808060200182810382526028815260200180613f2c6028913960400191505060405180910390fd5b505b505050505050565b612ccc8160008085815260200190815260200160002060000161243590919063ffffffff16565b15612d3457612cd9612465565b73ffffffffffffffffffffffffffffffffffffffff168173ffffffffffffffffffffffffffffffffffffffff16837f2f8788117e7eff1d82e926ec794901d17c78024a50270940304540a733656f0d60405160405180910390a45b5050565b612d5f81600080858152602001908152602001600020600001613c2a90919063ffffffff16565b15612dc757612d6c612465565b73ffffffffffffffffffffffffffffffffffffffff168173ffffffffffffffffffffffffffffffffffffffff16837ff6391f5c32d9c69d2a47ea670b442974b53935d1edc7fd64eb21e047a839171b60405160405180910390a45b5050565b612dd3611a38565b612e45576040517f08c379a00000000000000000000000000000000000000000000000000000000081526004018080602001828103825260148152602001807f5061757361626c653a206e6f742070617573656400000000000000000000000081525060200191505060405180910390fd5b6000600560006101000a81548160ff0219169083151502179055507f5db9ee0a495bf2e6ff9c91a7834c1ba4fdd244a5e8aa4e537bd38aeae4b073aa612e89612465565b604051808273ffffffffffffffffffffffffffffffffffffffff1673ffffffffffffffffffffffffffffffffffffffff16815260200191505060405180910390a1565b600073ffffffffffffffffffffffffffffffffffffffff168373ffffffffffffffffffffffffffffffffffffffff161415612f52576040517f08c379a00000000000000000000000000000000000000000000000000000000081526004018080602001828103825260238152602001806140ae6023913960400191505060405180910390fd5b8051825114612fac576040517f08c379a00000000000000000000000000000000000000000000000000000000081526004018080602001828103825260288152602001806141f96028913960400191505060405180910390fd5b6000612fb6612465565b9050612fd681856000868660405180602001604052806000815250612792565b60008090505b83518110156130fc57613088838281518110612ff457fe5b6020026020010151604051806060016040528060248152602001613fae602491396002600088868151811061302557fe5b6020026020010151815260200190815260200160002060008973ffffffffffffffffffffffffffffffffffffffff1673ffffffffffffffffffffffffffffffffffffffff168152602001908152602001600020546127a89092919063ffffffff16565b6002600086848151811061309857fe5b6020026020010151815260200190815260200160002060008773ffffffffffffffffffffffffffffffffffffffff1673ffffffffffffffffffffffffffffffffffffffff168152602001908152602001600020819055508080600101915050612fdc565b50600073ffffffffffffffffffffffffffffffffffffffff168473ffffffffffffffffffffffffffffffffffffffff168273ffffffffffffffffffffffffffffffffffffffff167f4a39dc06d4c0dbc64b70af90fd698a233a518aa5d07e595d983b8c0526c8f7fb8686604051808060200180602001838103835285818151815260200191508051906020019060200280838360005b838110156131ad578082015181840152602081019050613192565b50505050905001838103825284818151815260200191508051906020019060200280838360005b838110156131ef5780820151818401526020810190506131d4565b5050505090500194505050505060405180910390a450505050565b600073ffffffffffffffffffffffffffffffffffffffff168473ffffffffffffffffffffffffffffffffffffffff161415613290576040517f08c379a00000000000000000000000000000000000000000000000000000000081526004018080602001828103825260218152602001806142216021913960400191505060405180910390fd5b600061329a612465565b90506132bb816000876132ac8861356e565b6132b58861356e565b87612792565b61331e836002600087815260200190815260200160002060008873ffffffffffffffffffffffffffffffffffffffff1673ffffffffffffffffffffffffffffffffffffffff1681526020019081526020016000205461286290919063ffffffff16565b6002600086815260200190815260200160002060008773ffffffffffffffffffffffffffffffffffffffff1673ffffffffffffffffffffffffffffffffffffffff168152602001908152602001600020819055508473ffffffffffffffffffffffffffffffffffffffff16600073ffffffffffffffffffffffffffffffffffffffff168273ffffffffffffffffffffffffffffffffffffffff167fc3d58168c5ae7397731d063d5bbf3d657854427343f4c083240f7aacaa2d0f628787604051808381526020018281526020019250505060405180910390a4613406816000878787876135de565b5050505050565b613415611a38565b15613488576040517f08c379a00000000000000000000000000000000000000000000000000000000081526004018080602001828103825260108152602001807f5061757361626c653a207061757365640000000000000000000000000000000081525060200191505060405180910390fd5b6001600560006101000a81548160ff0219169083151502179055507f62e78cea01bee320cd4e420270b5ea74000d11b0c9f74754ebdbfc544b05a2586134cc612465565b604051808273ffffffffffffffffffffffffffffffffffffffff1673ffffffffffffffffffffffffffffffffffffffff16815260200191505060405180910390a1565b600061351e8360000183613c5a565b60001c905092915050565b6000613551836000018373ffffffffffffffffffffffffffffffffffffffff1660001b613cdd565b905092915050565b600061356782600001613d00565b9050919050565b606080600167ffffffffffffffff8111801561358957600080fd5b506040519080825280602002602001820160405280156135b85781602001602082028036833780820191505090505b50905082816000815181106135c957fe5b60200260200101818152505080915050919050565b6135fd8473ffffffffffffffffffffffffffffffffffffffff16613c17565b1561390f578373ffffffffffffffffffffffffffffffffffffffff1663f23a6e6187878686866040518663ffffffff1660e01b8152600401808673ffffffffffffffffffffffffffffffffffffffff1673ffffffffffffffffffffffffffffffffffffffff1681526020018573ffffffffffffffffffffffffffffffffffffffff1673ffffffffffffffffffffffffffffffffffffffff16815260200184815260200183815260200180602001828103825283818151815260200191508051906020019080838360005b838110156136e25780820151818401526020810190506136c7565b50505050905090810190601f16801561370f5780820380516001836020036101000a031916815260200191505b509650505050505050602060405180830381600087803b15801561373257600080fd5b505af192505050801561376657506040513d602081101561375257600080fd5b810190808051906020019092919050505060015b61387057613772613e1f565b8061377d575061381f565b806040517f08c379a00000000000000000000000000000000000000000000000000000000081526004018080602001828103825283818151815260200191508051906020019080838360005b838110156137e45780820151818401526020810190506137c9565b50505050905090810190601f1680156138115780820380516001836020036101000a031916815260200191505b509250505060405180910390fd5b6040517f08c379a0000000000000000000000000000000000000000000000000000000008152600401808060200182810382526034815260200180613ed66034913960400191505060405180910390fd5b63f23a6e6160e01b7bffffffffffffffffffffffffffffffffffffffffffffffffffffffff1916817bffffffffffffffffffffffffffffffffffffffffffffffffffffffff19161461390d576040517f08c379a0000000000000000000000000000000000000000000000000000000008152600401808060200182810382526028815260200180613f2c6028913960400191505060405180910390fd5b505b505050505050565b600073ffffffffffffffffffffffffffffffffffffffff168373ffffffffffffffffffffffffffffffffffffffff16141561399d576040517f08c379a00000000000000000000000000000000000000000000000000000000081526004018080602001828103825260238152602001806140ae6023913960400191505060405180910390fd5b60006139a7612465565b90506139d7818560006139b98761356e565b6139c28761356e565b60405180602001604052806000815250612792565b613a5482604051806060016040528060248152602001613fae602491396002600087815260200190815260200160002060008873ffffffffffffffffffffffffffffffffffffffff1673ffffffffffffffffffffffffffffffffffffffff168152602001908152602001600020546127a89092919063ffffffff16565b6002600085815260200190815260200160002060008673ffffffffffffffffffffffffffffffffffffffff1673ffffffffffffffffffffffffffffffffffffffff16815260200190815260200160002081905550600073ffffffffffffffffffffffffffffffffffffffff168473ffffffffffffffffffffffffffffffffffffffff168273ffffffffffffffffffffffffffffffffffffffff167fc3d58168c5ae7397731d063d5bbf3d657854427343f4c083240f7aacaa2d0f628686604051808381526020018281526020019250505060405180910390a450505050565b6000613b3f8383613cdd565b613b98578260000182908060018154018082558091505060019003906000526020600020016000909190919091505582600001805490508360010160008481526020019081526020016000208190555060019050613b9d565b600090505b92915050565b613bb1868686868686613d11565b613bb9611a38565b15613c0f576040517f08c379a000000000000000000000000000000000000000000000000000000000815260040180806020018281038252602c815260200180613fd2602c913960400191505060405180910390fd5b505050505050565b600080823b905060008111915050919050565b6000613c52836000018373ffffffffffffffffffffffffffffffffffffffff1660001b613d19565b905092915050565b600081836000018054905011613cbb576040517f08c379a0000000000000000000000000000000000000000000000000000000008152600401808060200182810382526022815260200180613f0a6022913960400191505060405180910390fd5b826000018281548110613cca57fe5b9060005260206000200154905092915050565b600080836001016000848152602001908152602001600020541415905092915050565b600081600001805490509050919050565b505050505050565b60008083600101600084815260200190815260200160002054905060008114613df55760006001820390506000600186600001805490500390506000866000018281548110613d6457fe5b9060005260206000200154905080876000018481548110613d8157fe5b9060005260206000200181905550600183018760010160008381526020019081526020016000208190555086600001805480613db957fe5b60019003818190600052602060002001600090559055866001016000878152602001908152602001600020600090556001945050505050613dfb565b60009150505b92915050565b6000601f19601f8301169050919050565b60008160e01c9050919050565b600060443d1015613e2f57613ed2565b60046000803e613e40600051613e12565b6308c379a08114613e515750613ed2565b60405160043d036004823e80513d602482011167ffffffffffffffff82111715613e7d57505050613ed2565b808201805167ffffffffffffffff811115613e9c575050505050613ed2565b8060208301013d8501811115613eb757505050505050613ed2565b613ec082613e01565b60208401016040528296505050505050505b9056fe455243313135353a207472616e7366657220746f206e6f6e2045524331313535526563656976657220696d706c656d656e746572456e756d657261626c655365743a20696e646578206f7574206f6620626f756e6473455243313135353a204552433131353552656365697665722072656a656374656420746f6b656e73416363657373436f6e74726f6c3a2073656e646572206d75737420626520616e2061646d696e20746f206772616e74455243313135353a2062616c616e636520717565727920666f7220746865207a65726f2061646472657373455243313135353a206275726e20616d6f756e7420657863656564732062616c616e6365455243313135355061757361626c653a20746f6b656e207472616e73666572207768696c6520706175736564455243313135353a2063616c6c6572206973206e6f74206f776e6572206e6f7220617070726f766564416363657373436f6e74726f6c3a2073656e646572206d75737420626520616e2061646d696e20746f207265766f6b65455243313135353a207472616e7366657220746f20746865207a65726f2061646472657373455243313135353a207472616e736665722063616c6c6572206973206e6f74206f776e6572206e6f7220617070726f766564455243313135353a206275726e2066726f6d20746865207a65726f2061646472657373455243313135355072657365744d696e7465725061757365723a206d7573742068617665206d696e74657220726f6c6520746f206d696e74455243313135353a20696e73756666696369656e742062616c616e636520666f72207472616e73666572455243313135355072657365744d696e7465725061757365723a206d75737420686176652070617573657220726f6c6520746f20756e7061757365455243313135355072657365744d696e7465725061757365723a206d75737420686176652070617573657220726f6c6520746f207061757365455243313135353a2073657474696e6720617070726f76616c2073746174757320666f722073656c66455243313135353a206163636f756e747320616e6420696473206c656e677468206d69736d61746368455243313135353a2069647320616e6420616d6f756e7473206c656e677468206d69736d61746368455243313135353a206d696e7420746f20746865207a65726f2061646472657373416363657373436f6e74726f6c3a2063616e206f6e6c792072656e6f756e636520726f6c657320666f722073656c66a26469706673582212206773b724ed6b27b71d5b54a2f613ca85c76b08f52b2d3c112dfdb277e6119f7f64736f6c63430006090033",
  "immutableReferences": {},
  "source": "// SPDX-License-Identifier: MIT\n\npragma solidity >=0.6.0 <0.8.0;\n\nimport \"../access/AccessControl.sol\";\nimport \"../utils/Context.sol\";\nimport \"../token/ERC1155/ERC1155.sol\";\nimport \"../token/ERC1155/ERC1155Burnable.sol\";\nimport \"../token/ERC1155/ERC1155Pausable.sol\";\n\n/**\n * @dev {ERC1155} token, including:\n *\n *  - ability for holders to burn (destroy) their tokens\n *  - a minter role that allows for token minting (creation)\n *  - a pauser role that allows to stop all token transfers\n *\n * This contract uses {AccessControl} to lock permissioned functions using the\n * different roles - head to its documentation for details.\n *\n * The account that deploys the contract will be granted the minter and pauser\n * roles, as well as the default admin role, which will let it grant both minter\n * and pauser roles to other accounts.\n */\ncontract ERC1155PresetMinterPauser is Context, AccessControl, ERC1155Burnable, ERC1155Pausable {\n    bytes32 public constant MINTER_ROLE = keccak256(\"MINTER_ROLE\");\n    bytes32 public constant PAUSER_ROLE = keccak256(\"PAUSER_ROLE\");\n\n    /**\n     * @dev Grants `DEFAULT_ADMIN_ROLE`, `MINTER_ROLE`, and `PAUSER_ROLE` to the account that\n     * deploys the contract.\n     */\n    constructor(string memory uri) public ERC1155(uri) {\n        _setupRole(DEFAULT_ADMIN_ROLE, _msgSender());\n\n        _setupRole(MINTER_ROLE, _msgSender());\n        _setupRole(PAUSER_ROLE, _msgSender());\n    }\n\n    /**\n     * @dev Creates `amount` new tokens for `to`, of token type `id`.\n     *\n     * See {ERC1155-_mint}.\n     *\n     * Requirements:\n     *\n     * - the caller must have the `MINTER_ROLE`.\n     */\n    function mint(address to, uint256 id, uint256 amount, bytes memory data) public virtual {\n        require(hasRole(MINTER_ROLE, _msgSender()), \"ERC1155PresetMinterPauser: must have minter role to mint\");\n\n        _mint(to, id, amount, data);\n    }\n\n    /**\n     * @dev xref:ROOT:erc1155.adoc#batch-operations[Batched] variant of {mint}.\n     */\n    function mintBatch(address to, uint256[] memory ids, uint256[] memory amounts, bytes memory data) public virtual {\n        require(hasRole(MINTER_ROLE, _msgSender()), \"ERC1155PresetMinterPauser: must have minter role to mint\");\n\n        _mintBatch(to, ids, amounts, data);\n    }\n\n    /**\n     * @dev Pauses all token transfers.\n     *\n     * See {ERC1155Pausable} and {Pausable-_pause}.\n     *\n     * Requirements:\n     *\n     * - the caller must have the `PAUSER_ROLE`.\n     */\n    function pause() public virtual {\n        require(hasRole(PAUSER_ROLE, _msgSender()), \"ERC1155PresetMinterPauser: must have pauser role to pause\");\n        _pause();\n    }\n\n    /**\n     * @dev Unpauses all token transfers.\n     *\n     * See {ERC1155Pausable} and {Pausable-_unpause}.\n     *\n     * Requirements:\n     *\n     * - the caller must have the `PAUSER_ROLE`.\n     */\n    function unpause() public virtual {\n        require(hasRole(PAUSER_ROLE, _msgSender()), \"ERC1155PresetMinterPauser: must have pauser role to unpause\");\n        _unpause();\n    }\n\n    function _beforeTokenTransfer(\n        address operator,\n        address from,\n        address to,\n        uint256[] memory ids,\n        uint256[] memory amounts,\n        bytes memory data\n    )\n        internal virtual override(ERC1155, ERC1155Pausable)\n    {\n        super._beforeTokenTransfer(operator, from, to, ids, amounts, data);\n    }\n}\n",
  "sourcePath": "/home/danub0/Documents/COURS/4A/S8/Blockchain_prog/DANI/DANI/contracts/node_modules/@openzeppelin/contracts/presets/ERC1155PresetMinterPauser.sol",
  "compiler": {
    "name": "solc",
    "version": "0.6.9+commit.3e3065ac.Emscripten.clang"
  },
  "schemaVersion": "3.3.4",
  "updatedAt": "2021-03-12T11:21:58.539Z",
  "devdoc": {
    "details": "{ERC1155} token, including:  - ability for holders to burn (destroy) their tokens  - a minter role that allows for token minting (creation)  - a pauser role that allows to stop all token transfers This contract uses {AccessControl} to lock permissioned functions using the different roles - head to its documentation for details. The account that deploys the contract will be granted the minter and pauser roles, as well as the default admin role, which will let it grant both minter and pauser roles to other accounts.",
    "methods": {
      "balanceOf(address,uint256)": {
        "details": "See {IERC1155-balanceOf}. Requirements: - `account` cannot be the zero address."
      },
      "balanceOfBatch(address[],uint256[])": {
        "details": "See {IERC1155-balanceOfBatch}. Requirements: - `accounts` and `ids` must have the same length."
      },
      "constructor": {
        "details": "Grants `DEFAULT_ADMIN_ROLE`, `MINTER_ROLE`, and `PAUSER_ROLE` to the account that deploys the contract."
      },
      "getRoleAdmin(bytes32)": {
        "details": "Returns the admin role that controls `role`. See {grantRole} and {revokeRole}. To change a role's admin, use {_setRoleAdmin}."
      },
      "getRoleMember(bytes32,uint256)": {
        "details": "Returns one of the accounts that have `role`. `index` must be a value between 0 and {getRoleMemberCount}, non-inclusive. Role bearers are not sorted in any particular way, and their ordering may change at any point. WARNING: When using {getRoleMember} and {getRoleMemberCount}, make sure you perform all queries on the same block. See the following https://forum.openzeppelin.com/t/iterating-over-elements-on-enumerableset-in-openzeppelin-contracts/2296[forum post] for more information."
      },
      "getRoleMemberCount(bytes32)": {
        "details": "Returns the number of accounts that have `role`. Can be used together with {getRoleMember} to enumerate all bearers of a role."
      },
      "grantRole(bytes32,address)": {
        "details": "Grants `role` to `account`. If `account` had not been already granted `role`, emits a {RoleGranted} event. Requirements: - the caller must have ``role``'s admin role."
      },
      "hasRole(bytes32,address)": {
        "details": "Returns `true` if `account` has been granted `role`."
      },
      "isApprovedForAll(address,address)": {
        "details": "See {IERC1155-isApprovedForAll}."
      },
      "mint(address,uint256,uint256,bytes)": {
        "details": "Creates `amount` new tokens for `to`, of token type `id`. See {ERC1155-_mint}. Requirements: - the caller must have the `MINTER_ROLE`."
      },
      "mintBatch(address,uint256[],uint256[],bytes)": {
        "details": "xref:ROOT:erc1155.adoc#batch-operations[Batched] variant of {mint}."
      },
      "pause()": {
        "details": "Pauses all token transfers. See {ERC1155Pausable} and {Pausable-_pause}. Requirements: - the caller must have the `PAUSER_ROLE`."
      },
      "paused()": {
        "details": "Returns true if the contract is paused, and false otherwise."
      },
      "renounceRole(bytes32,address)": {
        "details": "Revokes `role` from the calling account. Roles are often managed via {grantRole} and {revokeRole}: this function's purpose is to provide a mechanism for accounts to lose their privileges if they are compromised (such as when a trusted device is misplaced). If the calling account had been granted `role`, emits a {RoleRevoked} event. Requirements: - the caller must be `account`."
      },
      "revokeRole(bytes32,address)": {
        "details": "Revokes `role` from `account`. If `account` had been granted `role`, emits a {RoleRevoked} event. Requirements: - the caller must have ``role``'s admin role."
      },
      "safeBatchTransferFrom(address,address,uint256[],uint256[],bytes)": {
        "details": "See {IERC1155-safeBatchTransferFrom}."
      },
      "safeTransferFrom(address,address,uint256,uint256,bytes)": {
        "details": "See {IERC1155-safeTransferFrom}."
      },
      "setApprovalForAll(address,bool)": {
        "details": "See {IERC1155-setApprovalForAll}."
      },
      "supportsInterface(bytes4)": {
        "details": "See {IERC165-supportsInterface}. Time complexity O(1), guaranteed to always use less than 30 000 gas."
      },
      "unpause()": {
        "details": "Unpauses all token transfers. See {ERC1155Pausable} and {Pausable-_unpause}. Requirements: - the caller must have the `PAUSER_ROLE`."
      },
      "uri(uint256)": {
        "details": "See {IERC1155MetadataURI-uri}. This implementation returns the same URI for *all* token types. It relies on the token type ID substitution mechanism https://eips.ethereum.org/EIPS/eip-1155#metadata[defined in the EIP]. Clients calling this function must replace the `\\{id\\}` substring with the actual token type ID."
      }
    }
  },
  "userdoc": {
    "methods": {}
  }
}